:020000040800F2
:1000000000800120C11300085D1300085F13000881
:100010006113000863130008651300080000000066
:10002000000000000000000000000000671300084E
:1000300069130008000000006B1300086D1300082E
:1000400011140008111400081114000811140008FC
:1000500011140008111400081114000811140008EC
:1000600011140008111400081114000811140008DC
:1000700011140008111400081114000811140008CC
:1000800011140008111400081114000800000000E9
:100090000000000000000000000000001114000833
:1000A000111400081114000811140008111400089C
:1000B000111400081114000811140008111400088C
:1000C000111400081114000811140008111400087C
:1000D0001114000811140008111400080000000099
:1000E0001114000811140008111400080000000089
:1000F00000000000000000000000000011140008D3
:100100000000000011140008111400081114000868
:1001100000000000000000000000000000000000DF
:10012000111400081114000811140008111400081B
:100130001114000800000000000000000000000092
:100140000000000000000000000000001114000882
:1001500011140008111400081114000811140008EB
:100160001114000811140008000000000000000035
:10017000000000000000000000000000000000007F
:100180000000000011140008000000000000000042
:04019000111400083E
:1001A00010B5054C237833B9044B13B10448AFF3B1
:1001B00000800123237010BD7000002000000000AB
:1001C000B41C000808B5034B1BB103490348AFF347
:1001D000008008BD0000000074000020B41C00086E
:1001E000034613F8012B002AFBD1181A0138704777
:1001F00001F0FF01102A2BDB10F0070F08D010F8D8
:10020000013B013A8B422DD010F0070F42B3F6D1DB
:10021000F0B441EA012141EA014122F007047FF0F4
:1002200000070023F0E80256083C85EA010586EA4B
:10023000010685FA47F5A3FA87F586FA47F6A5FA87
:1002400087F68EB9EED1F0BC01F0FF0102F0070293
:1002500032B110F8013B013A83EA010313B1F8D13E
:100260000020704701387047002D06BF354603381F
:10027000073815F0010F07D1013015F4807F02BF58
:10028000013015F4C03F0130F0BC0138704700BFA9
:1002900053B94AB9002908BF00281CBF4FF0FF31ED
:1002A0004FF0FF3000F07AB9ADF1080C6DE904CEE3
:1002B00000F006F8DDF804E0DDE9022304B0704741
:1002C0002DE9F0478C460D460446089E002B51D17F
:1002D0008A4217466DD9B2FA82FEBEF1000F0BD0EA
:1002E000CEF1200C01FA0EF520FA0CFC02FA0EF702
:1002F0004CEA050C00FA0EF44FEA174A250CBCFB39
:10030000FAF81FFA87F90AFB18CC45EA0C4508FBF6
:1003100009F3AB420AD9ED1908F1FF3280F02381CD
:10032000AB4240F22081A8F102083D44ED1AA4B28C
:10033000B5FBFAF00AFB105544EA054400FB09F945
:10034000A14509D9E41900F1FF3380F00A81A145E4
:1003500040F2078102383C44A4EB090440EA08401B
:100360000021002E61D024FA0EF400233460736063
:10037000BDE8F0878B4207D9002E54D0002186E8D3
:1003800021000846BDE8F087B3FA83F1002940F068
:100390008E80AB4202D3824200F2FA80841A65EB6F
:1003A00003050120AC46002E3FD086E81010BDE8C2
:1003B000F08712B90127B7FBF2F7B7FA87FEBEF153
:1003C000000F34D1EB1B3A0C1FFA87FC0121B3FB61
:1003D000F2F8250C02FB183345EA03450CFB08F341
:1003E000AB4207D9ED1908F1FF3002D2AB4200F25F
:1003F000D1808046ED1AA3B2B5FBF2F002FB105596
:1004000043EA05440CFB00FCA44507D9E41900F1BC
:10041000FF3302D2A44500F2B8801846A4EB0C04C6
:1004200040EA08409DE731463046BDE8F087CEF10E
:10043000200405FA0EF307FA0EF720FA04F83A0C36
:1004400025FA04F448EA0308B4FBF2F14FEA184530
:1004500002FB11441FFA87FC45EA044501FB0CF33B
:10046000AB4200FA0EF409D9ED1901F1FF3080F02A
:100470008A80AB4240F2878002393D44EB1A1FFA72
:1004800088F5B3FBF2F002FB103345EA034500FBAD
:100490000CF3AB4207D9ED1900F1FF386FD2AB4234
:1004A0006DD902383D44EB1A40EA01418FE7C1F1B2
:1004B000200722FA07F88B4005FA01F448EA030303
:1004C00020FA07FE4FEA134CFD404EEA040EB5FB3E
:1004D000FCF94FEA1E440CFB19551FFA83F844EA55
:1004E000054509FB08F4AC4202FA01F200FA01FAF0
:1004F00008D9ED1809F1FF3043D2AC4241D9A9F136
:1005000002091D442D1B1FFA8EFEB5FBFCF00CFBEF
:1005100010554EEA054400FB08F8A04507D9E41839
:1005200000F1FF3529D2A04527D902381C4440EA02
:100530000940A4EB0804A0FB02894C45C6464D4681
:1005400015D312D056B1BAEB0E0364EB050404FACE
:1005500007F7CB401F43CC40376074600021BDE8F3
:10056000F0871846F8E69046E0E6C245EAD2B8EBD6
:10057000020E69EB03050138E4E72846D7E7404659
:1005800091E78146BEE7014678E702383C4445E7FB
:10059000084608E7A8F102083D442BE7704700BF72
:1005A00038B50E4A0E4B054618784FF47A73B3FBF4
:1005B000F0F31068B0FBF3F000F088F8044658B987
:1005C0000F2D09D8024629464FF0FF3000F04AF8B7
:1005D000044B20461D6038BD012038BD08000020B6
:1005E000000000200400002008B50B4B1A6842F4FC
:1005F00000721A601A6842F480621A601A6842F443
:1006000080721A60032000F01BF80020FFF7C8FF7B
:1006100000F054FE002008BD003C0240034A044B99
:1006200011681B780B441360704700BF98000020CE
:1006300000000020014B1868704700BF98000020A0
:10064000074AD36823F4E0631B041B0C43F0BF6329
:10065000000243F4003300F4E0600343D3607047CA
:1006600000ED00E0174B30B5DC68C4F30224C4F1A0
:100670000703251D042B28BF0423062D4FF0010579
:1006800005FA03F303F1FF338CBF033C0024194048
:10069000A14005FA04F4013C2240002842EA01028C
:1006A0004FEA0212ADBF00F1604000F00F00064BB0
:1006B00000F56140B5BFD2B2D2B21A5480F800231F
:1006C00030BD00BF00ED00E014ED00E00138B0F1F6
:1006D000807F0AD2064B074A5860F02182F8231027
:1006E0000020072298601A6070470120704700BF01
:1006F00010E000E000ED00E02DE9F04F85B00B6860
:10070000DFF88C81604A01934FF001090023019DBD
:1007100009FA03F42540AC4240F0A6804C6824F06E
:10072000100C0CF1FF36012E4FEA430E12D88768E9
:10073000032606FA0EF627EA0607CE6806FA0EF634
:100740003E4386604768C4F3001627EA05079E40CB
:100750003E4346600326C76806FA0EF6F64307EAEC
:10076000060A8F6807FA0EF747EA0A07BCF1020F7C
:10077000C76016D14FEAD30A00EB8A0A03F0070BD1
:10078000DAF820704FEA8B0B4FF00F0C0CFA0BFCD1
:1007900027EA0C0C0F6907FA0BF747EA0C07CAF8AF
:1007A000207007683E4004F0030707FA0EFE4EEA89
:1007B00006060660E60057D54FF0000BCDF80CB0EA
:1007C000D8F84470314E47F48047C8F84470D8F8E0
:1007D000447007F480470397039F23F0030707F152
:1007E000804707F59C3703F0030CD7F808A04FEAC1
:1007F0008C0C4FF00F0E0EFA0CFEB0422AEA0E0ED1
:1008000039D006F58066B04237D006F58066B04232
:1008100035D006F58066B04233D006F58066B0422A
:1008200014BF0726042606FA0CF646EA0E06BE603A
:100830001668EF4314F4803F0CBF3E402E43166011
:10084000566814F4003F0CBF3E402E435660966835
:1008500014F4801F0CBF3E402E439660D668A4025D
:1008600054BF3E402E43D6600133102B7FF44FAF70
:1008700005B0BDE8F08F5E46D5E70126D3E7022636
:10088000D1E70326CFE700BF003C01400000024053
:10089000003802400AB1816170470904FBE700009B
:1008A0002DE9F341044608B901203FE00368DD0764
:1008B00010D4236898075AD423681A0700F19C8043
:1008C00023685B0700F1BA80A069002840F01B8113
:1008D00000202BE0A44B9A6802F00C02042A07D0F7
:1008E0009A6802F00C02082A0AD15B68590207D5FF
:1008F0009D4B1B689A03DCD56368002BD9D1D3E7E5
:100900006368994DB3F5803F13D12B6843F480336E
:100910002B60FFF78FFE944D06462B689B03C8D4CF
:10092000FFF788FE801B6428F7D9032002B0BDE8DA
:10093000F081B3F5A02F04D12B6843F480232B6002
:10094000E3E72A6822F480322A602A6822F48022AF
:100950002A60002BDDD1FFF76DFE06462B689F0352
:10096000A7D5FFF767FE801B6428F7D9DDE77E4B2C
:100970009A6812F00C0F07D09A6802F00C02082A4D
:1009800011D15B685E020ED4774B1A68950702D5C9
:10099000E268012A88D11A68216922F0F80242EA45
:1009A000C1021A6088E7E268704BB2B101221A6096
:1009B000FFF740FE6C4D06462B68980707D52B685D
:1009C000226923F0F80343EAC2032B6074E7FFF7C0
:1009D00031FE801B0228EFD9A7E71A60FFF72AFE35
:1009E000614D06462B6899077FF566AFFFF722FE3B
:1009F000801B0228F6D998E762695D4B7AB1012223
:100A00001A60FFF717FE584D06466B6F9F073FF5BC
:100A100057AFFFF70FFE801B0228F6D985E71A6053
:100A2000FFF708FE504D06466B6F98077FF548AFFD
:100A3000FFF700FE801B0228F6D976E74A4B1A6CB6
:100A400012F0805228D101921A6C42F080521A643E
:100A50001B6C03F080530193019B0126454D2B68CD
:100A6000D9051BD5A368404D012B27D12B6F43F02F
:100A700001032B67FFF7DEFD3B4D074641F2883847
:100A80002B6F9B0739D5002E3FF41EAF364A136CEF
:100A900023F08053136417E70026DFE72B6843F445
:100AA00080732B60FFF7C6FD07462B68DA05D9D4A3
:100AB000FFF7C0FDC01B0228F7D936E7052B04D18C
:100AC0002B6F43F004032B67D0E72A6F22F001025B
:100AD0002A672A6F22F004022A67002BCAD1FFF787
:100AE000A9FD41F2883807462B6F9807CBD5FFF751
:100AF000A1FDC01B4045F7D917E7FFF79BFDC01BC1
:100B00004045BDD911E7184DAB6803F00C03082B25
:100B100047D0194E00230228336035D1FFF78AFDF4
:100B200007462B68990129D4226AE3691343626A54
:100B300043EA8213E26A43EA0263A26A0A4C520859
:100B4000013A43EA02436B6001233360FFF772FD11
:100B5000054623689A013FF5BBAEFFF76BFD401BCE
:100B60000228F6D9E1E600BF003802400000474203
:100B7000800E47420070004060004742FFF75AFD78
:100B8000C01B0228CDD9D0E6FFF754FD04462B68E0
:100B90009B017FF59DAEFFF74DFD001B0228F6D9A6
:100BA000C3E601283FF4C2AEA868E36900F48002FE
:100BB0009A427FF479AE226A00F03F0393427FF4B9
:100BC00073AE626A47F6C073034093427FF46CAE23
:100BD000A26A00F4403393427FF466AEE36A00F009
:100BE0007060C01A18BF0120A0E600BF134908B505
:100BF0008B6803F00C03042B03D0082B03D01048A0
:100C000008BD104808BD4A684B68496813F4800362
:100C100014BF0C480A48C1F3881118BF002302F022
:100C20003F02A1FB0001FFF733FB044B5B68C3F3FA
:100C3000014301335B00B0FBF3F008BD0038024014
:100C40000024F40000127A002DE9F0410D4604461C
:100C500010B90120BDE8F081444B1A6802F00F0280
:100C60008A4229D321688F072ED4C80741D43F4B2D
:100C70001A6802F00F02954267D3226851076DD4BB
:100C8000130707D53A4A2169936823F4604343EA7E
:100C9000C1039360FFF7AAFF354B364A9B68C3F345
:100CA0000313D35CD840344B1860344B1868FFF7FB
:100CB00077FC0020BDE8F081CAB21A701B6803F00F
:100CC0000F039942C5D1CDE7294B11F0040F1EBF88
:100CD0009A6842F4E0529A600E0742BF9A6842F462
:100CE00060429A609A68A06822F0F00202439A601B
:100CF000BBE762681E4B012A1DD11B6813F4003F3D
:100D0000A7D01B4EB36823F003031343B360FFF770
:100D100091FC41F288380746B368626803F00C031F
:100D2000B3EB820FA3D0FFF785FCC01B4045F3D97E
:100D30000320BDE8F081911E01291B6802D813F041
:100D4000007FDDE713F0020FDAE7EAB21A701B68E2
:100D500003F00F039D427FF47CAF8EE70449E06807
:100D60008B6823F4E05303438B6089E7003C024027
:100D700000380240131D0008080000200400002075
:100D8000044B054A9B68C3F38223D35C034A106873
:100D9000D840704700380240231D0008080000209A
:100DA000044B054A9B68C3F34233D35C034A106883
:100DB000D840704700380240231D0008080000207A
:100DC00038B50368C1681A69044622F440520A43E0
:100DD0001A612569A268D968C0692A43656921F446
:100DE00016412A4321F00C0102430A43DA605A6992
:100DF000A16922F440720A43B0F5004F5A61254AB6
:100E000029D1934203D002F58062934220D1FFF7AB
:100E1000C7FF6268256892184FF000034FF0190170
:100E20005B41A0FB0101FFF733FA6421B0FBF1F451
:100E300001FB1403DB003233B3FBF1F303F00702D1
:100E40005B0002EB041203F4F8731344AB6038BD8B
:100E5000FFF796FFDDE7934202D00F4A934216D187
:100E6000FFF79EFF6368256819219A00A0FB010126
:100E70009B0FFFF70DFA6422B0FBF2F102FB1103A6
:100E80001B013233B3FBF2F303EB0113DEE7FFF791
:100E900077FFE7E70010014000140140F8B5044671
:100EA0000E4617461D4621680B6836EA030301D13A
:100EB0000020F8BD6B1CF7D095B92368DA6822F4DE
:100EC000D072DA605A6922F001025A61202384F854
:100ED000393084F83A30002384F838300320F8BDE4
:100EE000FFF7A8FBC01B8542DDD2E6E710B504463C
:100EF00040B390F8393003F0FF021BB980F8382076
:100F000000F0F8F92268242384F83930D36823F4F8
:100F10000053D3602046FFF753FF23681A6922F479
:100F200090421A615A6922F02A025A61DA6842F440
:100F30000052DA6000202023E06384F8393084F81E
:100F40003A3010BD012010BD2DE9F8431F4690F83E
:100F50003930202B04460D46904651D100294CD003
:100F6000002A4AD090F83830012B49D0012380F86C
:100F700038304FF000092123C0F83C9080F8393018
:100F8000FFF758FBA4F824800646A4F8268084F8CE
:100F90003890E38C9BB25BB93B46324640212046F9
:100FA000FFF77CFFA0B9202384F83930BDE8F8832F
:100FB000E38C013B9BB2E384A368B3F5805F3246C8
:100FC0003B464FF0800120460ED1FFF767FF10B17E
:100FD0000320BDE8F8832B882268C3F3080353601D
:100FE000236943B90235D4E7FFF758FF0028EFD152
:100FF00023682A785A600135CBE70120BDE8F883E1
:101000000220BDE8F88300207047002070470000F0
:1010100002290ED8002393701070517020B101285E
:101020000CBF042001207047034BD360034B1361B6
:1010300070470120704700BF071000080B10000820
:1010400000238370704730B40D46114682783AB958
:10105000C468012282701A462846234630BC1847CD
:10106000022030BC704730B40D46114682783AB940
:101070000469012282709AB22846234630BC184780
:10108000022030BC7047000030B595B030220021FE
:1010900008A800F0F4F90021142203A800F0EFF9E9
:1010A00000241C4B01941A6C42F080521A641B6C91
:1010B000194A03F080530193019B0294136823F4AF
:1010C000404343F40043136013680F9403F4404318
:1010D0000293029B01230B9310230C9310934FF464
:1010E000A873119304230225129308A807231393CE
:1010F00008950E95FFF7D4FB0F23039329464FF471
:10110000805303A80495059406930794FFF79CFD6C
:1011100015B030BD0038024000700040F0B5BDB0E1
:10112000FFF762FAFFF7B0FF142200210AA800F0CF
:10113000A6F90024574B01941A6B5748574D42F0BB
:1011400004021A631A6B02F004020192019A0294DB
:101150001A6B42F080021A631A6B02F0800202924C
:10116000029A03941A6B42F001021A631A6B02F09E
:1011700001020392039A04941A6B42F002021A636A
:101180001B6B03F00203224604932021049BFFF70C
:1011900081FB4FF400530A930AA9414B41480B933A
:1011A00001260C94FFF7A8FA20230AA93A480A93CB
:1011B0000B960C940D94FFF79FFA3B4AAC604FF4EA
:1011C000E13385E80C0028460C236B61EC602C6150
:1011D000AC61EC61FFF78AFE05AA21462046FFF7C5
:1011E00017FFC822074621460AA800F048F93A46E8
:1011F0002E490AA800F04CF90AA8FEF7F1FF642373
:1012000082B20AA92846FFF79FFE4FF49673022286
:10121000314605A8FFF717FF254902460AA800F046
:1012200037F90AA8FEF7DCFF642382B20AA9284630
:10123000FFF78AFE4FF496730222314605A8FFF7A6
:1012400002FF1C4902460AA800F022F90AA8FEF78C
:10125000C7FF642382B20AA92846FFF775FE05A8D6
:10126000FFF7EEFE3CABFF2223F8EE2D31460222C3
:1012700005A8FFF7F8FE104902460AA800F008F991
:101280000AA8FEF7ADFF642382B20AA92846FFF739
:101290005BFEFEE700380240000002409C00002098
:1012A000000021100008024000440040CC1C00084F
:1012B000DD1C0008EF1C0008021D000882B00C4B6A
:1012C000002100915A6C42F480425A645A6C02F434
:1012D00080420092009A01911A6C42F080521A6486
:1012E0001B6C03F080530193019B02B0704700BF59
:1012F0000038024010B5044688B01422002103A82B
:1013000000F0BDF82268134B9A4220D103F5FA335E
:10131000002101911A6C104842F400321A641A6CD0
:1013200002F400320192019A02911A6B42F001021A
:101330001A631B6B03F001030293029B0C230393BC
:101340000223049303A907230793FFF7D5F908B0F5
:1013500010BD00BF00440040000002407047FEE79F
:10136000FEE7FEE7FEE7704770477047FFF756B9A4
:1013700008B50A4B1968024609B909491960186885
:10138000694602448A4206D900F044F80C230360FF
:101390004FF0FF3008BD1A6008BD00BF8C00002070
:1013A000E0000020054BD3F8882042F47002C3F817
:1013B00088204FF000629A60704700BF00ED00E0A7
:1013C000DFF834D0002103E00C4B5B58435004316C
:1013D0000B480C4B42189A42F6D30B4A02E000230A
:1013E00042F8043B094B9A42F9D3FFF7DBFF00F0C8
:1013F00017F8FFF793FE704700800120701D00086A
:10140000000000207000002070000020E00000209C
:10141000FEE70000014B1868704700BF0C00002079
:1014200070B50D4E0D4CA41BA4100025A54209D18A
:101430000B4E0C4C00F03EFCA41BA4100025A54252
:1014400005D170BD56F8253098470135EEE756F8BE
:10145000253098470135F2E7681D0008681D00082F
:10146000681D00086C1D000810B5431E0A44914217
:1014700000D110BD11F8014B03F8014FF7E702440A
:101480000346934200D1704703F8011BF9E70000BF
:101490000EB400B59CB04FF402711DABADF8141042
:1014A000029006906FF000410A48049107914FF6B0
:1014B000FF7153F8042BADF816100068019302A9D0
:1014C00000F066F8029B00221A701CB05DF804EB75
:1014D00003B070470C0000202DE9F0478E689E4253
:1014E00082460C469146984635D88A8912F4906F08
:1014F00031D0256809696F1A6569022305EB450536
:1015000095FBF3F508F101033B449D4238BF1D46AE
:10151000530531D5294600F02DFB064650B90C2362
:10152000CAF80030A38943F04003A3814FF0FF3095
:10153000BDE8F0873A462169FFF796FFA38923F4B7
:10154000906343F08003A381266165613E44ED1BF7
:101550002660A5604646464528BF4646324649466F
:10156000206800F09FFAA3689B1BA36023681E44B9
:1015700026600020BDE8F0872A4600F059FB0646A9
:101580000028E1D12169504600F0A6FAC7E7000023
:101590002DE9F04F9DB0804603938B891C060D46C4
:1015A00016460FD50B696BB9402100F0E3FA2860AD
:1015B000286128B90C23C8F800304FF0FF30C5E08F
:1015C00040236B610023099320238DF829303023B9
:1015D0008DF82A304FF0010B37463C4614F8013B9A
:1015E000002B3CD1B7EB060A0BD0534632462946B6
:1015F0004046FFF771FF013000F0A380099B534480
:1016000009933B78002B00F09C8000234FF0FF32C1
:1016100004930793059206938DF853301A9305228D
:1016200021785048FEF7E4FD671C049BD8B9D90621
:1016300044BF20228DF853201A0744BF2B228DF877
:10164000532022782A2A16D0079A00210A202746FA
:1016500001343B78303B092B51D9C9B111E0252B1E
:10166000C0D02746B9E73F4A801A0BFA00F018436A
:1016700004903C46D3E7039A111D12680391002A97
:1016800001DB079204E0524243F002030792049305
:101690003B782E2B0ED17B782A2B07F1010132D11A
:1016A000039B1A1D1B680392002BB8BF4FF0FF333A
:1016B000023705932C4C397803222046FEF798FD1B
:1016C00038B14023001B03FA00F0049B034304934A
:1016D0000137397825488DF8281006227E1CFEF740
:1016E00087FD002835D0224BFBB9039B073323F03D
:1016F000070308330393099B4B4409936CE700FBF2
:1017000002320121A3E70023059318460A240F465D
:1017100001313A78303A092A03D9002BCAD0059012
:10172000C8E704FB00200123F1E703AB00932A463E
:10173000104B04A94046AFF30080B0F1FF3F814653
:10174000D9D1AB895B063FF538AF09981DB0BDE82C
:10175000F08F03AB00932A46064B04A9404600F0E5
:1017600081F8EAE72B1D0008311D0008351D00082F
:1017700000000000D91400082DE9F04791461F46EB
:101780008A680B69DDF820809342B8BF1346C9F818
:10179000003091F8432006460C4612B10133C9F8D7
:1017A00000302368990642BFD9F800300233C9F8E7
:1017B0000030256815F0060507D104F1190AE36821
:1017C000D9F800209B1A9D4229DB94F84330226807
:1017D000003318BF012392062ED404F14302394688
:1017E0003046C047013021D02368E568D9F8002091
:1017F00003F00603042B08BFAD1AA36822690CBFCF
:1018000025EAE57500259342C4BF9B1AED184FF0F9
:1018100000091A344D451BD10020BDE8F087012393
:10182000524639463046C047013003D14FF0FF30B1
:10183000BDE8F0870135C2E7E1185A1C302081F875
:101840004300224494F8451082F843100233C4E761
:101850000123224639463046C0470130E6D009F11F
:101860000109D7E72DE9F04317460A7E85B06E2AB5
:10187000984606460C460C9B01F1430E00F0BC80D6
:101880001AD8632A2ED00AD8002A00F0C880582A15
:1018900000F08A8004F1420584F842202AE0642A9C
:1018A00001D0692AF6D121681A6811F0800F23D07F
:1018B000111D1960136827E0732A00F0B48008D85E
:1018C0006F2A2AD0702AE5D10A6842F020020A6005
:1018D00003E0752A21D0782ADCD1782284F84520CB
:1018E0006E4964E01A6801F14205111D1960136820
:1018F00084F842300123A3E011F0400F02F104010B
:101900001960D7D0B2F90030002B03DA2D225B42E8
:1019100084F8432062490A2217E02068196810F011
:10192000800F03D0081D18600B6806E010F0400F10
:1019300001F104001860F7D00B8859496F2A14BFD1
:101940000A220822002084F843006568A560002D63
:10195000C0F29C80206820F004002060002B3FD162
:10196000002D40F095807546082A0BD12368DA07D0
:1019700008D5236962689A42DEBF302305F8013C2E
:1019800005F1FF35AEEB05032361CDF800803B4642
:1019900003AA21463046FFF7EFFE013055D14FF044
:1019A000FF3005B0BDE8F08381F845203C4922684E
:1019B000186812F0800F00F104051D6001D0036863
:1019C00002E05506FBD50388D00744BF42F0200251
:1019D00022601BB9226822F0200222601022B1E7A7
:1019E0007546B3FBF2F002FB1033CB5C05F8013D0A
:1019F00003460028F5D1B7E708681A68496910F06E
:101A0000800F04D0101D18601368196007E010F0F3
:101A1000400F02F1040018601368F6D0198000230B
:101A200023617546B1E71A68111D1960156862686F
:101A300000212846FEF7DCFB08B1401B60606368AC
:101A40002361002384F843309FE723692A463946FF
:101A50003046C0470130A2D023689B0707D5002538
:101A600004F11909E368039A9B1A9D4205DBE068BB
:101A7000039B9842B8BF184693E701234A4639466C
:101A80003046C04701308AD00135EBE7002BA7D1A3
:101A90000B7884F8423004F1420565E74D1D0008DB
:101AA0003C1D0008884210B501EB020303D8421E1A
:101AB00099420CD110BD9842F9D28118D21AD34262
:101AC00000D110BD13F8014D01F8014DF7E711F8F1
:101AD000014B02F8014FEBE738B50546002945D028
:101AE00051F8043C0C1F002BB8BFE41800F0D6F8E6
:101AF0001F4A1368104633B9636014602846BDE876
:101B0000384000F0CCB8A3420CD921686218934247
:101B100004BF1A685B68636004BF521822600460E7
:101B2000ECE713465A680AB1A242FAD91968581864
:101B3000A0420BD120680144581882421960DDD1BF
:101B4000106852685A6001441960D7E702D90C2323
:101B50002B60D3E7206821188A4204BF11685268BD
:101B6000626004BF091821605C60C7E738BD00BF30
:101B70009000002070B5CD1C25F0030508350C2D14
:101B800038BF0C25002D064601DBA94203D90C23E2
:101B90003360002070BD00F081F8234A14682146AC
:101BA00091B9224C23681BB9304600F067F82060D9
:101BB0002946304600F062F8431C26D10C233360DE
:101BC000304600F06CF8E4E70B685B1B1AD40B2B73
:101BD0000FD90B60CD50CC18304600F060F804F1FE
:101BE0000B00231D20F00700C31A1BD05A42E250FD
:101BF00070BD8C420DBF63684B686360136018BF93
:101C00000C46E9E70C464968CAE7C41C24F0030403
:101C1000A04205D0211A304600F030F80130CDD076
:101C20002560D9E770BD00BF90000020940000201F
:101C3000F8B5074614460E4621B91146BDE8F840EE
:101C4000FFF798BF22B9FFF747FF25462846F8BDA2
:101C500000F026F884420FD921463846FFF78AFF64
:101C600005460028F2D031462246FFF7FDFB3146FB
:101C70003846FFF731FFE9E73546E7E738B5064C68
:101C80000023054608462360FFF772FB431C02D180
:101C9000236803B12B6038BDDC000020704770471B
:101CA00051F8040C0028A0F10400BCBF0B58C01868
:101CB00070470000F8B500BFF8BC08BC9E467047EE
:0C1CC000F8B500BFF8BC08BC9E46704799
:101CCC00696E697420737461747573202564200ABD
:101CDC000077726974652073746174757320256460
:101CEC00200A00777269746532207374617475739D
:101CFC00202564200A007265616420737461747518
:101D0C0073202564200A0000000000000000000180
:101D1C000203040607080900000000010203042363
:101D2C002D302B2000686C4C0065666745464700DB
:101D3C0030313233343536373839414243444546F5
:101D4C00003031323334353637383961626364658B
:041D5C00660000001D
:081D600060E5FF7F01000000B7
:041D6800C5010008A9
:041D6C00A1010008C9
:101D700001000000100000000024F400100000200A
:101D80000000000000000000000000000000000053
:101D90000000000000000000000000000000000043
:101DA0000000000000000000000000000000000033
:101DB0000000000000000000000000000000000023
:101DC0000000000000000000000000000000000013
:101DD0000000000000000000000000000000000003
:04000005080013C11B
:00000001FF
